:020000040001F9
:2010000038B50D4604460AF0E1F907482168016061684160A16881600BF092FF0AF08DFDD5
:2010200028460CF038F838BD7C4500200AF0CEB900BF00BF0BF084BF00BF00BF0AF07DBD51
:0C10400000BF00BF0CF027B800BF00BFCD
:20104C006E490860704780B5002200920B4601226B4900F0BAF802BD80B50A88172A05DB54
:20106C00002200920B4603226649F2E7022002BD38B50D460446A878012818BF02280DD11F
:20108C00288800281CBF6868002807D002210AF081FD00902B4605225B4931E0022032BD39
:2010AC0038B500F01EF81CBF6868002806D000F036F800902B460722544921E0022032BD91
:2010CC0038B500F00EF81CBF6868002807D002210AF060FD00902B4609224D4910E0022029
:2010EC0032BD0D46044628880028704738B500F024F808B100F013F800902B460B22454960
:20110C00204600F062F832BD38B500F016F808B100F005F800902B460D223F49F0E70121E2
:20112C000AF038BD38B500F008F808B1FFF7F7FF00902B460F223949E2E70D460446686848
:20114C00704738B5FFF7CDFF1CBF6868002807D002210AF01FFD00902B4611223049CFE7D7
:20116C00022032BD80B5002100910023132270E738B50D460446A86810B105210AF00AFD3A
:20118C0000902B4617222749BAE780B500210091002319225DE738B5FFF7CFFF10B10321D9
:2011AC000AF0F8FC00902B461B2209E038B5FFF7C4FF10B103210AF0EDFC00902B461D2260
:2011CC001949204600F03EFA32BDF8B504460698009015461E46204600F034FA07000AD1DA
:2011EC0006480268100006D0012D04BF3078451CE9B2204690473846F2BD00005044002092
:20120C0093120100CF12010001130100B71301003D1401007B140100F51401002715010031
:20122C002D1501009315010007160100F8B505460C46AF892FB3AA68167830060FD50D2F3E
:20124C001FDB0C3FBFB2B81800903B466888012104F0D0FF002814BF0220012000E00020D8
:20126C002070B00900F00100607006F03F00A070781EA08080B208B1A868401CA0600020E6
:20128C00F2BD0120F2BD0A7802704A8842704A88120A8270097912E104290AD101781170F4
:2012AC008378417801EB03215180C0781071002070470420704705E0022B00D1CFE004206C
:2012CC00704700BF0A8802700988090A417002207047022906D10178407801EB002010808B
:2012EC000020704704207047E0E0042B00D1EEE0042070478A780270887801280CBF04203B
:20130C00122009884843401C80B2704710B5E1B10378491E012B89B207D14B0801EB937371
:20132C009B08B1EB830410D108E0022B0DD1122391FBF3F3122404FB131131B99BB223B1FC
:20134C0010F8011B9170138005E1042010BD10B50C46022200F043F8001D611D0AF0A4FC57
:20136C002089801D80B210BD70B51E46062E144619DB049D2078617800EB01202880022227
:20138C00A078E17800EB01206880211D02202871681D0AF089FCB01F288180B200B1A01DC7
:2013AC00E860002070BD042070BD08888004000C70470323194203D1890801D0118099E0A3
:2013CC000420704710B50C4600F009F8611D2279001D0AF069FC2079001D80B210BD21882B
:2013EC0001702188090A4170618881706188090AC170704710B5029C062B104612D1022155
:20140C0021714278017801EB02212180C278817801EB02216180011D2279601D0AF044FCB8
:20142C00002010BD142B08BF1021E9D0042010BD77E010B559B103785380491E022B89B28F
:20144C0005DB91FBF3F403FB141101B981E0042010BD37E7022B00D101E00420704710789E
:20146C00517800EB01200099088000207047088870473CE010B5022B0FDB029C2072617251
:20148C001078517800EB01202080981E608080B200B1901C6060002010BD042010BDADE0F3
:2014AC0000290CBF00200420704700BF0A8802700A88120A42704A8882704988090AC17035
:2014CC0004207047042B00D101E00420704700981178537801EB032101809178D27801EBAD
:2014EC0002214180002070470888704700BF118001B9002050600020704788884004000CCD
:20150C007047D80707D45908022904DB009881800260002070470420704708887047E6E722
:20152C0000BF4A8809880270514389B2481C80B2704710B559B103785380491E042B89B201
:20154C0005DB91FBF3F403FB141101B901E0042010BD1480401C5060002010BD14E010B537
:20156C00042B0EDB00F062F8D478917801EB04214180191F818089B201B1111D8160002081
:20158C0010BD042010BD00BF0A8802700A88120A42704A8882704A88120AC2708888001D4D
:2015AC0080B2704710B5042913DB0378447803EB04231380091F8378C478918003EB0423F2
:2015CC0089B25380002914BF001D00209060002010BD042010BD0978017001207047012BF4
:2015EC0004D1009910780870002070470420704700290CBF00200420704700BF0A8802700D
:20160C000A88120A42704888801C80B2704710B5022B09DB00F00AF8991E418089B201B1DC
:20162C00911C4160002010BD042010BD02981178547801EB04210180704700290CBF002026
:20164C00042070472DE9F04784B080460C9D0C4691469A4655B9172004F074FA01260500D7
:20166C0005D11324204604B0BDE8F08700262846012700F8019B14B15146A047471C5FEADC
:20168C0009600DD51021404604F04BFBD0B9BFB27A193946284604F060FD04000CD10C3713
:2016AC000420ADF800000195ADF808706946404603F013FD0400D5D0002ED3D028460AF088
:2016CC0096FACFE71924F7E730B585B0022918BF10290446154603D1022B18BF102B01D0BF
:2016EC00002017E0994204D10A4629460AF02CFE10E01029694606D1284600F00DF81022F0
:20170C006946204604E000F007F81022694628460AF01AFE05B030BD38B504000D4618BFB7
:20172C00002D0BD010220FF2A40128460AF0BCFA2078287360786873012032BD002032BD9A
:20174C0030B585B004460D0018BF002C14D01022214668460AF0A8FA68460021818110223F
:20176C000FF268010AF0F0FD012805D1207B2870607B6870012000E0002005B030BD38B577
:20178C0004464FF6FE7084420D460BD0172D09DB03F039FDA84205D329462046BDE834404B
:2017AC0004F0ECBA012032BD80B54FF6FE71884204D004F0F0FA28B9172002BDBDE8014051
:2017CC0003F021BD02BD704700207047FB349B5F800000800010000000000000282808DA74
:2017EC004FF6FF72914204D0C84A22F8101000207047022070472828BABFC44931F8100075
:20180C004FF6FF70704770B504460D46C04E1C22002130460AF046FA347775770BF038FDAB
:20182C0000280EBF012100211220317070BD10B5B74CE160A060102200210AF095FD012853
:20184C0001D1A0680CE010BD10B5B14C6060102200210AF089FD012801D1606800E010BD24
:20186C00BDE81040102104F02DBCA948406870472DE9FC41A64D0446002695F81E80042CF8
:20188C000F4624DA2878032818BF102054D101F05EFA28B900F044F910B900F043F908B1ED
:2018AC00122049E0012C18BF022C1DD1BFB10622002168460AF0F6F900F040F838B9062210
:2018CC00FF2168460AF0EEF900F038F808B1022032E00622394668460AF0E6F90BE0062100
:2018EC00684604F0EFFB06E0032C04D16868694604F0A6FA0646874FAC770421387809F040
:20190C0092FF002028849EB9ACB1684600F057F806000DD1032C0ED11D20FFF76CFF288481
:20192C0048B138784EF66022042109F094FF02E00EB185F81E803046BDE8F6810622694656
:20194C0038460AF001BD70B504460025704E2CB921B1062206F110000AF0A6F930780128A3
:20196C000BD1012524B90220307006F0ABF904E000203070204600F0A7F8284670BD38B5FF
:20198C000025D0B10478624A34B94178837801EB0321D182C0781076107802280DD10125F5
:2019AC0034B903201070117ED08A03F026FC01E000201070204600F087F8284632BD10B515
:2019CC00534CA17F81B10146062204F124000AF06BF9A07F04F1240100F008F804F12400E2
:2019EC00BDE810400BF058BC002010BD002918BF00280DD04A79012808BF42F0C00006D06A
:201A0C0002F03F0203284A7102D142F0400048717047010018BF01210846704770B53C4D3F
:201A2C000446287FFF2815D00A200AF00BF9060010D0D020307074700820B0700622A87F84
:201A4C00F07005F12401301D0AF02EF9287F31460AF0D4F9E87F01280FD12F48006818B194
:201A6C008068010018BF8047BDE87040294800784EF66022042109F0EEBE70BD2448806884
:201A8C0070472348C068006870472148C1680A68521C0A60007FFF281CBF4FF480410AF076
:201AAC00F0B970471A48807F704738B50446184D05F110000BF0F4FB05F110001CB9A97F13
:201ACC0009B105F1240032BD70B5114D0446287FFF2819D00E200AF0B5F8060014D0D02004
:201AEC00307074700020B070062205F11001F01C0AF0DAF8E88A70813146287E3073287F45
:201B0C00BDE870400AF07AB970BD0000BC45002090450020484600204C46002004F0ACB93B
:201B2C00264800E02648006800B101207047010001D0172801DBFF2801D10120704700200E
:201B4C0070472DE9F84F0D4693460024BBF1200F80461F462C7003DB0020BDE8F28F041932
:201B6C00E4B25C45F8D2E65D641C002EF4D0E4B231198B45F0DB14F807A05046FFF7D7FF13
:201B8C00641C0028E8D0701EC2452870E7D1E4B2E019E2E70B490A781043087070470949F2
:201BAC000A7832EA0000087006D10748006818B14068010018BF0047704700005844002072
:201BCC00544400205C440020644400202DE9F04104468846122740464FF6FE7188421646C1
:201BEC00DFF8DC5808D1A86950B30268100027D041462046904720E04FF6FF71884212D14A
:201C0C00A86938B10268100004D0414620469047070005D03146204600F086FA07000FD19C
:201C2C002C706E700CE004F04FF848B10078A04205D1314640460BF037FB074600E003274D
:201C4C003846BDE8F08110B5044684B02389E288A188608805F0B6FF08B9022029E020883C
:201C6C00012104F05EF808B9142022E0208804F069F8042812D1DFF8480881894FF6FF7202
:201C8C00914218BF112014D12188818161888180A188C180E1880181218941810020029070
:201CAC00019020890090E388A2886188208806F05DF804B010BD70B50C46DFF8081809786D
:201CCC00022918BF0129154601D1122070BD0DB9022070BD03F0F8FF060001D1142070BD08
:201CEC001CB1307940F0020030711022294606F1180009F0D9FF2869B062002070BDF8B571
:201D0C0006000C4601D10220F2BD308803F0DCFF050001D11420F2BDDFF8A8070078022854
:201D2C0018BF012803D0A87C082802D10CB11220F2BDDFF88C77786908B11120F2BDB020DB
:201D4C000BF0D6F8786108B91320F2BDB02200F0B0FA786931884180A022311D001D09F045
:201D6C00A3FF796902200870A87C08280CBF01200020796932880B1DDFF84C17097804F066
:201D8C009DFB06461CB12146284604F06AFD0EB100F047FA3046F2BD38B504460D4603F0C4
:201DAC0093FF08B9142032BD8DF800506946204604F08CFC32BD38B5002298B101230624A6
:201DCC00251815F8015C303D0A2D0BD203FB05220A25641E6B43E4B2002CF1D11046BDE8CC
:201DEC00344001E0022032BD30B505460C4685B0204603F069FF08B9122019E0DFF8CC0664
:201E0C00854228BF022013D210220021684609F049FF280A8DF801008DF80050280C8DF879
:201E2C0002002146280E8DF80300684604F08BFB05B030BDF8B50546DFF8880600780228A6
:201E4C0018BF01280C461F4601D11220F2BD0FB90220F2BD284603F037FF060001D11420D0
:201E6C00F2BDF06A08B10BF054F81C2138460AF059FA0100F16201D11320F2BDB07C0828E1
:201E8C000AD1069840B1887E009001F112030A8A284604F010FD00E00020317941F004014C
:201EAC000CB141F002013171F2BD2DE9F0410D4603F00AFF04001ED0A56200F0FDF9C5B2E8
:201ECC0005B92578A66A94F80580102009F0BAFE070010D0D0203870062200207870A11D2C
:201EEC000920B87087F80380381D09F0DDFEFE60394628461EE0BDE8F0812DE9F04104466A
:201F0C000D4690461F460E2009F09CFE06000FD0D020307006220020707041460C20B070F6
:201F2C00B580B01D09F0C0FE37733146204601E0BDE8F081BDE8F04109F060BFF0B50C00BF
:201F4C0087B04FD0A079DFF8786500280CBF08250425306908B9DFF878050778042D08D1D2
:201F6C00DFF87005006820B1416808001CBF00208847207D059004F10803608A0490394626
:201F8C00208A0390E08902900195A0880090E279E07800F065F8E07880B917200490012230
:201FAC00E089039002950020019004F108000090E379A188384603F00AFEE070306908B1A4
:201FCC0000F04AF9307868B1717800F0ADF848B1E378312B04D0A2883178184600F06EF878
:201FEC000020307007B0F0BDE0B50021029101918189009143890289C188808805F079FE27
:20200C0007BD70B505460026A88803F05DFE18B10678A88803F00EFEDFF8A444207838B126
:20202C00864205D1617800F07FF840B1002020702EB1AB79AA88A878314600F03FF8606959
:20204C0008B100F0EEF8A88803F07CFE042802BFA888A189884204BF4FF6FF70A08170BD72
:20206C002DE9F0410646884617461C46162009F0E9FD050020D0D02028706E700520A87087
:20208C00EF702CB106222146281D09F00DFE04E006220021281D09F005FE069868812946BC
:2020AC00079828730898E881099828820A9868820B98287540463DE7BDE8F081F8B5044603
:2020CC000D4616461F46082009F0BCFD48B1D021017044700621817086808771014628462C
:2020EC00EDE0F1BD2DE9F04105460E46174698460C2009F0A7FD040014D0304603F0E4FD3D
:20210C0008B9DFF8CC030078D021217065700721A170E570A680E780A4F8088006996181BD
:20212C00214607E7BDE8F08110B50C4603F0E0FD28B12146BDE8104040880BF0B5B81220AA
:20214C0010BD2DE9F84F0746894692461C46484603F0BAFD5FEA000B1EBFDFF8645369692A
:20216C0000295CD051F8A42F182002B134208A6802B1143004B11C30496801B1173080B2DD
:20218C0009F060FD06004AD0182200F092F800F093F85FEA000808BF9BF80080D0203070D3
:2021AC0077700A20B070A6F8049086F806A006F118076969D1F8A40040B1B7603846D1F8E8
:2021CC00A41000F11C071C2209F06EFD6969D1F8AC0040B1F7603846D1F8AC1000F11407EB
:2021EC00142209F061FD3CB13761384600F11C071C22214609F058FD6869D0F8A81031B109
:20220C0077611722D0F8A810384609F04DFD31465FFA88F009F0F2FDBDE8F14F01E0BDE8C5
:20222C00F18F10B5A64C6069A8B1D0F8A40008B10AF06FFE6069D0F8A80008B10AF069FE5A
:20224C006069D0F8AC0008B10AF063FE60690AF060FE0020606110BD10B5994C206940B12E
:20226C000AF057FE002020610420BDE81040FFF796BC10BDF8B504460D46284603F024FD68
:20228C00060015D000F018F8070008BF3778062009F0D8FC06000BD0062200F00AF8D020EC
:2022AC00307074700E20B070B5803146F8B206E0F1BD002109F0F6BC2620FFF79CBABDE853
:2022CC00F44009F09BBD2DE9F84305460E4617469846304603F0F8FC5FEA00091ED0102075
:2022EC0009F0B0FC040019D01022FFF7E2FFFFF7E3FF08B999F80000D021217065700F2186
:20230C00A170A680277284F80980C0B20899A1720999E1720A99E160214631E0BDE8F1834C
:20232C002DE9F84304468846914603F0CDFC070024D0142009F086FC05001FD0FFF7BCFF46
:20234C00060008BF3E78D0202870062200206870B91D0B20A870E81C09F0A6FC6C81C5F8E4
:20236C00109018F0010118BF01212973F0B218F0020118BF01216973294601E0BDE8F18327
:20238C00BDE8F44309F03ABD2DE9F14F90460D469946404603F098FC07000A9EDDF82CA0AA
:2023AC00DDF830B00D9C3ED09DF8000000283AD1387940F010005FEA49714CBF40F00200AC
:2023CC0000F0FD00002E08BFBAF1000F08D1BBF1000F08BF002C03D100F0FB00387122E064
:2023EC0040F0040038713CB12069B8621022214607F1180009F058FC3EB135B9F86A08B176
:20240C000AF087FD1C2130460AE0BAF1000F0AD0012D08D1F86A08B10AF07BFD1C2150469A
:20242C0009F080FFF862264D6869002842D086B1D0F8A40028B91C200AF05AFD6969C1F8A4
:20244C00A4006869D0F8A40018B11C22314609F02BFCBBF1000F11D06869D0F8A80028B933
:20246C0017200AF045FD6969C1F8A8006869D0F8A80018B11722594609F016FC8CB16869AF
:20248C00D0F8AC0028B914200AF032FD6969C1F8AC006869D0F8AC0018B11422214609F0A3
:2024AC0003FC9DF8000053464A46414601B0BDE8F04F46E6BDE8F18F074908607047000077
:2024CC000C460020AD4500204846002040420F00AC4500204C4600206044002070B5DFF8AA
:2024EC005C66054630680C4608B1112070BDDFF8500600780521084201D1122070BDDFF8A5
:20250C004406806800281CBF0078002801D1102070BD0C200AF0ECFC306040B30120FFF703
:20252C0039FB306805700021306841700A222146801C09F0B9FB00F02DF9040002D000F02C
:20254C00DCFA15E0DFF800060078032810D11D20FFF751F9DFF8F415088048B1DFF8F00599
:20256C0000784EF66022042109F075F900E01324204670BDF8B50C46DFF8C4150978154650
:20258C00052211421E462AD001F00501214326D0012CDFF8B01502D18F6807B301E0CF68A1
:2025AC00EFB1202D01DA15B10EB90220F2BD08701F220021781C09F075FB2A463146781C97
:2025CC0009F072FB3D70284624B1791CBDE8F4400AF06EBE791CBDE8F4400AF06DBE122040
:2025EC00F2BD38B5DFF85445216809B9122032BD0978814201D0032032BDDFF85455287810
:20260C00022109F010F9DFF84C15002008800421287809F008F9DFF83415002008800320FF
:20262C00216848700020BDE832400AF049BE10B50446DFF80C0582B000780521084201D132
:20264C00122016BD1CB12078FFF771FA08B9022016BD6078801C202812DA207800F0AFF915
:20266C0008B1182016BD69460DF1010000F0B4F99DF8000030B161780818801C202801DB10
:20268C000B2016BD204600F067F916BD80B5DFF8B01409780522114201D1002002BD00F03B
:2026AC008EF900B1406802BDDFF8941409780522114218BF00F06AB900207047DFF88004D9
:2026CC0000780521084218BF00F0A1B91220704770B5DFF87044A06818B10AF01AFC00204B
:2026EC00A060E06818B10AF014FC0020E0600521DFF84C54287808421CD004F1100000F0EB
:20270C00EBFB287800260521084211D000F0D6F9A06060B100F013F800F0D0F9E06010B12B
:20272C0000F00DF804E0A0680AF0F3FBA6601326304670BD002000F0CFFB002070BD202279
:20274C00002109F0AFBA10B58188012442F20603CA1A05D0921E012A0DD9921E05D016E0C5
:20276C008068007800F04FF803E08068007800F05BF804460CE042F2080291420CBF0122FB
:20278C00002280680178104600F099F800E00024204610BDF0B5DFF8A47385B0386878B309
:2027AC00847800F0D4FA28B10A20FFF724F805460B200DE000F0AFF928B10620FFF71BF83B
:2027CC000546072004E00820FFF715F805460920FFF711F80646DFF870030078FFF719F9E3
:2027EC003968CA7A039203468A7A029228460A1D01922246C978009131460AF065FD00E05D
:20280C00012005B0F0BD80B5DFF83013096849B118B9012048700AF053FD08B100F051F988
:20282C00012002BD002002BD2DE9F041C34D80462868002841D04078C74E01282DD100F003
:20284C006AF9C34FA0B10120FEF7D5FF0446422C0AD338784EF66022022108F0FCFFBD4995
:20286C00A4F13C0008800CE04FF47A70444302E0FEF7C1FF044624B138782246022108F06A
:20288C00BAFF296802204870307818B9404600F018F911E0002030700EE0307860B9032085
:2028AC0009F0D0F930B1D021017080F80180042100F01DF900F021F90120BDE8F08170B57D
:2028CC00A04E04463078FF280D460FD0042009F0B9F958B1D0210170457002218170C4707C
:2028EC0001463078BDE8704009F088BA70BD38B501469248964D02682878964C01291DD12B
:20290C00218811B1944B1B7823B122B3BDE83240107866E63C29A8BFA1F13C000CDA022197
:20292C0008F081FF20884FF47A7101FB00F22878022108F060FF0020208031BD5AB18049B3
:20294C000978490707D5022108F06DFF00202080BDE83140D1E031BD38B5044608200AF069
:20296C00C7FA050010D00822FFF7EAFE7548416831B100E0014608680028FBD10D6000E07D
:20298C0045606C60002032BD132032BD10B56D4B5968002201E00A46096871B14C68247815
:2029AC008442F8D14C680868002A14BF1060586008460AF0AEFA204610BD002010BD614979
:2029CC00496800E0096829B14A6812788242F9D1084670470020704770B5002202700A7036
:2029EC00584B5B6803E0AD1C2C1904701B686BB15C6865782AB904782E19B61C202EF2DB2D
:202A0C0001220C78AD1C2C190C70EFE770BDF8B54B48007800240521084201D11220F2BD77
:202A2C00484DA86810B900F049F8A860E86810B900F044F8E860A86800281CBFE9680029C9
:202A4C0001D11320F2BDFFF77AFEE868FFF777FE6E6812E09B1C88185918401C1170716847
:202A6C004978491C0170716809784170801C71684A78496809F018F936689EB144B9AA68BA
:202A8C007068117843785F18BF1C202FE2DB01247368E9685B780A789B1C50189A18401CDD
:202AAC000A70DCE7AA681078511C0AF001FCE868411C00780AF000FC0020F2BD20200AF0AB
:202ACC0017BA38B51D4D0446286878B1032009F0B9F828B1D02101704470032100F007F8F0
:202AEC00002C1CBFBDE8314000F007B831BD817001462868007809F081B910B50F4C2068F5
:202B0C0040B10AF006FA002020600120BDE81040FFF745B810BD80B50A48806858B1027856
:202B2C00431C69460120FFF70CF820B10078C00701D5012002BD002002BD000058440020FF
:202B4C00AD45002028460020AE450020B0450020484600205E440020AF45002038B50446E6
:202B6C000D4603F0B1F8A0B1807C042801D0122032BD3748006808B190F8995029466846C1
:202B8C0003F0C7FA334B6A460221204604F099FA32BD142032BD80B52F480078400707D5DE
:202BAC002E48FFF789FC2E494FF6FF70088001BDBDE802400020FFF77FBC7CB501240328EE
:202BCC000E4610D042F21301884204D04FF6FF7188421ED02AE0B0780C2818BF112826D1F5
:202BEC0000F027F823E0F078B1881D4D1A2804BF2A889142F4D0728900923389F288FFF7A5
:202C0C0071FAB0882988884211D14FF6FF7028800DE070790024122809D1ADF800403179AF
:202C2C0070886A4602F08AFA012400E00024204676BD38B50A4C20884FF6FF75A84205D045
:202C4C0008490A78084902F08CFA258031BD00002046002097700100AD45002044460020EF
:202C6C001846002048460020104600209D494870704710B59B4C207008F088FB2078BDE85D
:202C8C001040052102F014BA7CB5964D28780C46210419D509F02EF8060084F4004411D017
:202CAC0000F057F858B93078A22806BF8E4800786878FF2803D0314609F0A0F802E03046F9
:202CCC0008F0D5FF204676BDE10709D5A86820B1416808001CBF0020884784F0010076BDB9
:202CEC00A10709D5686820B1416808001CBF0120884784F0020076BD610726D57B4E318897
:202D0C00E9B1481E308080B2E0B9FEF709FF48B1774901200870686820B1416808001CBFB0
:202D2C0001208847FEF7A1FD694603F089F86846FEF745FE1D20FEF75EFD308002E00421B7
:202D4C0008F071FD84F0040076BD002076BD02F0FFBF38B502780124912A4FF6FF7103D084
:202D6C00A22A00F0948098E042785E4B052A48D00E2A04D00F2A47D03E2A69D08DE08288E1
:202D8C0041F20905511B2DD040F6F975491B2FD0C91E31D0491E08D0891E022905D9C91EB8
:202DAC00012915D9C91E08D077E05968002975D009680A0072D088476DE04E4909680029A0
:202DCC006CD04B68190069D0014642F20E003DE09968002962D00B6819005FD0014610464C
:202DEC00984758E08068411C0078FEF7ACFD52E08068FEF7C4FD4EE080680078FEF70EFEF6
:202E0C004CE0FFF7FEF849E0828842F20D05531B14D09B1F02D09B1F10D03EE0364B1B885B
:202E2C008B420BD035490968002937D00A68110034D0014642F2130090472CE02D490968E0
:202E4C0061B34B68190029D001461046984722E08278012A11460ED0022A11D0032A07D0A4
:202E6C00062A02D00A2A06D017E0FFF7BDF815E0024680880DE001461046FFF75FF80DE08F
:202E8C00996859B149680A0008D0884706E00246408800F005F8044600E00024204632BD33
:202EAC0070B50C46154602F04DFF0126042804D11248006858B1026803E00E48006830B117
:202ECC004268100003D02946204690470646304670BD0449886070470249486070470849D7
:202EEC000860704748460020AC450020B0450020AF450020244600201846002060440020F3
:202F0C0064440020F8B5144600250E46C24FC34B40B1012815D0042818D006281ED00728E0
:202F2C0022D02CE0162928DA1622002107F10C0008F0B8FE3246214607F10C0008F0B4FEAE
:202F4C001EE0022E19D12088388119E0082E14D138462146082208F075FA11E0012E0CD165
:202F6C00DA6903F1280104E0012E06D1DA6B03F14801207800F03DF802E0182500E0022596
:202F8C002846F2BD10B50B460024A34920B1012808D0042809D00DE015220C31184608F054
:202FAC0083FE08E00889188005E01846082208F049FA00E00224204610BD70470020704704
:202FCC0001460020C90706D50FF2582393481022072101F0C3B8704701460020C90704D5EF
:202FEC008E484089002101F0E3B870478C490860704710B50B7884074CBF43F0020303F0C5
:20300C00FD0304064CBF43F0800303F07F0304074CBF43F0080303F0F70384064CBF43F05B
:20302C00200303F0DF030B70AA21084203D0107840F00C0003E018B9107800F0F3001070C6
:20304C0010BD2DE9F0410F461546387802281E464FF000085ED1786801784078069C01EB4D
:20306C00002080B2002C1CBFB0F5285F0B2056D14FF42851401A08D0401E1AD0401E28D0E1
:20308C00401E1ED0401E2AD044E0F86809F038F9079A80B2031B9342B8BF021B92B210190B
:2030AC00162803DA3280F86821180EE04FF00D0834E0F8680088022131802870000A687012
:2030CC002CE0062030800622F968284608F0ECFD24E001203080F868007828701EE0F86887
:2030EC00B0B108213180018829700188090A69704188A9704188090AE9708188297181882F
:20310C00090A6971C188A971C088000AE87105E0308003E0A6F800804FF001084046BDE89F
:20312C00F0812DE9FC4B0E46804630780027022891461D466BD17068017840780A9CDFF8A6
:20314C00E0B001EB002080B24FF42851401A06D0401E29D0401E4CD0401E38D057E0F068E3
:20316C0009F0CEF880B2A04204D32919162903DB0D274DE007274BE0F3682A464946E0182E
:20318C0008F092FD2C19F068A4B2C4F116020021201808F087FDDBF80000002838D002689A
:2031AC00100035D0002121E07CBB022DE0D199F8000099F8011000EB0120F1680880DBF8C2
:2031CC00000028B30268100022D001210EE0E4B9062DCDD1F0680622494608F065FDDBF8E2
:2031EC000000A8B10268100012D00321404690470EE054B9012DBBD199F80000002813BF4D
:20320C000128F1680870802702E00B2700E001273846BDE8F68B0000584600207C460020A1
:20322C00684400204F3001002F3101000000000070B5DFF8D85928780624604309F058FEEC
:20324C00DFF8CC19086008B9132070BD0020FF2206E03380401C0023F270B2703371C0B22A
:20326C002B78984209DA0B6804FB003600280CBF4FF6FE734FF6FF73EBE70FF2B14000F026
:20328C0005FD0FF6B900FDF7DBFE0FF6F90002F08FFC002070BD70B50446208868B16068D5
:2032AC000378426800F072F948B9606803784268DFF8600900F06CF908B9022070BDA078D7
:2032CC00C01F0A2801D3182070BDDFF84C59288820B12188C0F58030884201DA012070BD9A
:2032EC000C2009F005FE060001D1132070BD002007E06268298802EB0012401C5181491C4E
:20330C00298080B221888842F3D30020306008222146301D08F0C8FC686810B96E6004E0F8
:20332C00084601680029FBD10660002070BD38B502460846DFF8E0184C68002301E02346AF
:20334C00246894B1A5686D899542F8D12268002B0CBF4A601A6018B10822211D08F0A4FC80
:20336C00204609F0D6FD002032BD012032BDDFF8AC180870704710B5044610461422114238
:20338C0003D000F00EF9012204E04A0608D500F008F9002201462046BDE8104002F001BDBE
:2033AC00C80754BF0220002010BD70B504460D46A8061E4609D5104600F0F3F80146204680
:2033CC00BDE87040012202F0ECBC882005420FD0104600F0E6F8014605F00802204602F03F
:2033EC00E0FC48B1717A41B1317A012904D070BDA80701D4032070BD002070BD7CB504469D
:20340C00002000900D460223DFF814284FF6FF71012000F02CF8060026D0002304221D21F8
:20342C00204600F06BFD0190E0B170890199ADF800002B460420ADF8020000220120087071
:20344C00002001994870FF20019988700199C8706946204600F007F9040006D0019808F0FB
:20346C00C6FB02E0152400E00124204676BD2DE9F0478146DFF8A00744688A4690461E467E
:20348C0000E02468F4B1002700E07F1CA088BFB28742F6D2A06800EB07156889484528BFCF
:2034AC008245F2D33EB12978686833464246FEF70BF90028E9D0089810B1A168498901807C
:2034CC00284600E00020BDE8F087F0B5DFF84827536800E01B68D3B19D686E89B042F9DB07
:2034EC009F88BA199042F5DA4FF0000C01E004F1010C1FFA8CF4BC42ECD205EB0412B2F8F2
:20350C000AE08645F3D101B10E801046F0BD0020F0BD2DE9FC4104460027ADF804704FF6F4
:20352C00FF786089404515461E4608D001AA0092401C2378626880B2FFF799FF074623785D
:20354C00626800F023F830B923786268DFF8C40600F01EF808B160890CE023786268DFF8CB
:20356C00C40600F015F858B11FB1BDF80400A84203D0284600F0D1F803E07889404400E0BA
:20358C00608906B130803846BDE8F681DFF898060221FEF799B880B500F093FA00B100886C
:2035AC0002BD80B500F08DFA002814BF8078102002BD70B5012982B00446154616D003297A
:2035CC0018D0052925D0072927D0092929D00B292BD00D292DD00F292FD0112931D0132972
:2035EC0033D0172934D0192936D039E02946FDF72AFD33E001F007FEADF8000069462046CA
:20360C00FDF72AFD06002CD12988204600F020FC27E02946FDF72CFD20E02946FDF740FD2A
:20362C001CE02946FDF74CFD18E02946FDF75EFD14E02946FDF768FD10E02946FDF772FDA2
:20364C000CE02946FDF77DFD08E0FDF78BFD05E02946FDF78DFD01E0FDF797FD064600E0CA
:20366C000226304676BD2DE9FC410E46054617461C4601A900F032FA5FEA000827D1A7B155
:20368C00ADF8000069463088FFF71FFF012F18BF0027BDF80000FFF784FF01463A4628466D
:2036AC0002F07FFB5FEA000811D131462846FDF77DFD5FEA00080AD1019DFF2C07D0AB1C79
:2036CC001E2229460FF2914000F0A4FBEC704046BDE8F6817CB50D460446164601A900F00C
:2036EC00FDF9172818D09EB10020ADF8000069462888FFF7EAFE012E18BF0026BDF800006F
:20370C00FFF74FFF01463246204602F04AFB18B929462046FDF73FFD76BD10B50446FFF7EF
:20372C003AFF08B1611E0C18A0B210BD2DE9F0470D4688B08046A87800241E28914614D1E5
:20374C00404600F0DEF904001EBFA078FE28FF2822D0002000900022AB78E078414600F014
:20376C002EFB204600F0E1F916E0122804BF6878012813D0404600F0C4F904001CBF227958
:20378C00002A0BD0100607D4A978404600F073FB207940F08000207100206BE0DFF87C7416
:2037AC003878FF2817D0A978881E172813D20FF27C4A48080AEBC000A0F108063068002829
:2037CC001CBF7068002806D0287810B96A78012A03D1122901D006204CE002A90091AB8815
:2037EC00AA6869783668B047060042D1AA7852080AEBC20202A952F8042C4046904706005F
:20380C001CD1AB78042B34D002A8009000223878414600F0D4FA06002BD1A97802A800F04B
:20382C0043FB10B1002089F80000A878122804BF697801291DD0E4B120711AE06878C0B94E
:20384C00A8788DF800008DF804606946A878042818BF0628BDF80800ADF802004046FDF7F0
:20386C00F2FB28B16B4601221621404600F0E6FA0026304608B0BDE8F087002070472DE9B8
:20388C00FE430D46804628886988814200D308B901206AE00021ADF8041002914FF6FF7935
:2038AC0000E0401C0021009100236988002280B2FFF7DDFD070034D0BDF80400002835D1E4
:2038CC006B464A460521404600F018FB040001D111204AE002943878022806D101208DF8CE
:2038EC000600BDF80000860824E002208DF806001221BDF8000090FBF1F6788904F8010B5F
:20390C00102200F034F81034BDF80400401CADF80400B6B2BDF80400B04202D278894845D6
:20392C00BFD1BDF8040080B90A201EE09DF806000128E2D138780228F3D1788904F8010BB3
:20394C00022200F014F8A41CDEE701A94046FDF78FFB48B101AB05221621404600F06EFA27
:20396C0010B1029808F043F90020BDE8FE837889000A04F8010B2046796808F095B910B501
:20398C0082B04C880888844200D308B9012016BD00F015F800280CBF0A20002016BD10B565
:2039AC0082B04C880888844200D308B9012016BD00F005F800280CBF0A20002016BD0022F8
:2039CC0000924A1D0B79214651E510B5044682B0084669460088FFF778FD08B9012016BDDB
:2039EC00017ABDF800202046FFF7C5FC16BD70B582B006460D46002401E0641CA4B2A8887A
:203A0C00844229DA286810F8142000EB44006946407802EB002080B2FFF757FD50B928684D
:203A2C0010F814100170286800EB440149784170012076BD017ABDF800203046FFF79BFC04
:203A4C000028DAD0296811F814200A70296801EB440252784A7076BD002076BD10B50C465C
:203A6C0082B020886188814200D308B9012016BD23796D48621DFFF78BFD08B9102016BD1A
:203A8C0000200090237961882088621DFFF7EFFC00280CBF0A20002016BD38B504460D4643
:203AAC0069462888FFF711FD08B9012032BD017ABDF800202B462046FFF777FC32BD002027
:203ACC0070475549496800E0096829B18A6852898242F9D1081D70470020704710B50C4684
:203AEC0000F00FF858B104B120608078FE2801D1172010BDFF280CBF0020162010BD02205A
:203B0C0010BD10B5424A1268002100E0491C3F4B1B78C9B2994206D206234B439C5A8442DD
:203B2C00F4D1981810BD002010BD10B50446A01C00F078F9FF20E07010BD000010B50C46CB
:203B4C00FFF7DFFF30B101794A1C944204BF01F08001017110BD000010B582B004001EBFA2
:203B6C00A078FF28FE280BD0002000901E232188E078172200F023F9FE20A070FF20E07025
:203B8C0013BD000070B504464FF6FE70844282B036D04FF6FF7651B92046FFF7B2FF78BB25
:203BAC003046FFF7AEFF05002AD0048073BD012906D12046FFF7A5FF050021D02E800BE09D
:203BCC0002291DD10121204602F0ABF8C0B92046FFF797FF050013D0A878FF280ED0FE2805
:203BEC0007D0002000901E23E8781422214600F0E6F82846FFF799FFFF20A870002028713A
:203C0C0073BD70470448008870470000704400206C4400208C400100EC46002057460020A6
:203C2C00C44001009440010088400100C512010087380100F71201008B38010075130100E6
:203C4C008B39010001140100AB39010061140100D7390100D1140100D73901000F150100F5
:203C6C00FB39010001140100693A010081140100A73A010000000000000000006B15010050
:203C8C00A73A0100EB150100CB3A01008249086070478149486070478049087070470322FF
:203CAC0090FBF2F080B201F080BA0178B02904BF417800290CD10179122903D1417C0129EA
:203CCC0006D101E01B2903D14088012101F08ABA704780B5724A5070042172480078401CCE
:203CEC001070507801F0E4F9BDE80140FFF7A0BA38B50C46200411D56948407807F0FAFFCA
:203D0C00050008D02878A02804BF284600F008F8284607F0ACFF84F4004032BD002032BD6B
:203D2C0030B587B0044601208DF8000001A92046FDF77CFA05002AD19DF806105648C907D8
:203D4C000AD54368180005D060886A4601A9984705461CE006251AE00368180006D0608812
:203D6C006A4601A99847050001D110E006259DF8050060B99DF806008DF810008DF8145040
:203D8C000020ADF8120004A96088FDF75CF99DF8000000281EBFA068002807F028FF45B97C
:203DAC009DF80600122806BF9DF8051001291B2803D06088012101F015FA07B030BD2DE9AF
:203DCC00F0410446FF2C0D46164698461FD0202007F038FF070018D0B02038707E707D80F5
:203DEC0087F80480069929B1182207F1080007F05BFF04E0182207F1080007F053FF3946CA
:203E0C00204607F0FBFF002002E0132000E00220BDE8F08110B54FF47A746243BDE8104062
:203E2C0008F0B7BB10B504001EBF2078FF28FE2803D008F042FBFF20207010BD80B5009335
:203E4C0013460A46014615480078FFF7B8FF02BD30B583B004460D46FDF791FC50B901A83D
:203E6C000090ADF804507F230C48007800222146FFF7A5FF37BD00B583B07E238DF8041006
:203E8C008DF8052001A900910022014603480078FFF795FF07BD000074440020F446002085
:203EAC0070440020D4440020052923D006291BD0072918BF09291DD00B2918BF0D2919D05F
:203ECC000E2913D00F291CBF1129122912D0162918BF17290CD01B2918BF1D290AD052296A
:203EEC0018BFD22906D007E0C06870470068704780687047406870470020704770B5052901
:203F0C0014461D4616D0062912D0092918BF112910D0122912D0162918BF17290CD01B292B
:203F2C0018BF1D290AD0522918BFD22906D007E0072606E0022604E0052602E0032600E03F
:203F4C0001264FF6FF72944203D1FDF72DFC841B02E0D22908BF0C34301980B201F0F2FDD3
:203F6C0038B105B12C807142BDE8704009B207F011BE70BD80B5FFF797FF00281CBFBDE8CB
:203F8C00024007F034BE01BD0022022970D10178407801EB002080B24FF4C051401A2CD085
:203FAC00401E2DD040F6FF71401A2CD0401E2DD0401E2ED0401E2FD0FD3830D0401E31D0F6
:203FCC00401E32D0401E33D0401E34D0401E35D0401E36D0401E37D0401E38D0F83839D0E7
:203FEC00401E3AD0401E3ED0401E39D0401E3DD0401E08BF0FF2C0023AE00FF2780237E07B
:20400C000FF2740234E00FF2740231E00FF270022EE00FF270022BE00FF26C0228E00FF20A
:20402C006C0225E00FF2680222E00FF268021FE00FF264021CE00FF2640219E00FF2600204
:20404C0016E00FF2780213E00FF2740210E00FF274020DE00FF24C020AE00FF24C0207E0B6
:20406C000FF24C0204E00FF2440201E00FF24402104670470018000001180000002800002C
:20408C000128000002280000032800000029000001290000022900000329000004290000BF
:2040AC0005290000002A0000012A0000022A0000032A0000042A0000052A0000062900008C
:2040CC000729000008290000DFF8881C0870704738B5DFF8844CDFF8845C20762878C00088
:2040EC0008F006FFE061C8B1002108E04FF6FF7220F8312000EBC10300225A60491C2A7843
:20410C009142F3DB052000F0ADF8207EFFF72FF9BDE83240DFF8480C01F04ABD31BD38B567
:20412C000C46200418D5DFF8300C007E07F0E2FD05000ED02878B02808D1284600F003F91B
:20414C0020B1297905F10800FFF714FF284607F08EFD84F4004032BD002032BD7CB50400FE
:20416C001D460CD0ADF800108DF8022001946846FFF791F8060019D1C5B164890CB9022696
:20418C0014E00C2008F0B4FE08B913260EE00021016084808560DFF8CC1B0A6812B9086093
:2041AC0004E00A4611680029FBD11060304676BD30B50D46DFF8AC1B83B004460868002253
:2041CC0001E00246006890B18388A342F9D10368002A0CBF0B60136008F09BFE6946204663
:2041EC00FFF7A5F810B90DB1019929603EBD01203EBD70B550BB012926D1DFF85C0BC169A6
:20420C0000230C2600E05B1CDFF8504B2478A34216DA31F833404FF6FF75AC42F3D00024D9
:20422C0000E0641C457EE4B2AC42ECD201EBC3056D6806FB04552D88002DF2D0012070BD38
:20424C00BDE8704010780DE0182070BD022070BD0022002803BFDFF8000B407E087002228C
:20426C00104670472DE9F843DFF8EC7A0446002078760C25F869DFF8E46A406805FB04F8E4
:20428C0068B108F046FE0020002204E0F96901EBC001401C4A60C0B231788842F6D330782C
:2042AC0008FB00F080B208F023FE5FEA000927D0307808FB00F20021484607F0F3FC002019
:2042CC000FE0516805FB0CF34FF0000E23F801E059180CF1010CC1F808E0A445F1DBC1440C
:2042EC00401C3178C0B2884207D2F96901EBC0024FF0000CC2F80490EFE77C76002000E027
:20430C001320BDE8F28301460020C90705D5002310220121DFF8500C20E770470146002064
:20432C00C90704D5DFF8400C4089002140E77047DFF8301A096821B18A888242FAD18868E8
:20434C007047002070472DE9F04387B004460020ADF8100001208DF81200DFF8FC59286AAE
:20436C0038B900F050FF08F0C3FD0028286200F0E58018220021284607F094FC207902282F
:20438C0000F1010804F108074FF6FF7917D006282CD008282FD00A2833D00C2856D00E2851
:2043AC0000F08980102800F08B80122800F08D80162800F09180182800F09580BBE000F07F
:2043CC0022FF288029466088FCF746FE00283988288804D0814228BF014629809EE0814232
:2043EC0028BF01466088FFF733FDA4E004A9204600F0AEF87BE004AA0021204600F02FF9A0
:20440C0075E000F0A0F8060050D0608805AB4A460B21FFF773FD03006B6023D02079BDF8C4
:20442C001620039000953146BDF8140002900020019000F034FA060004D160882946FCF74C
:20444C0055FE28E0162E08BF00262AE000F07BF806002BD0608805AB4A460D21FFF74EFDBF
:20446C00686020B93888ADF81000112643E02179BDF8162003910346BDF8141002917988F1
:20448C0001910095314600F00AFA060006D160882946FCF739FE002840D129E0162E08BFD3
:2044AC000026686807F0A3FB0EB921E001263888ADF810001CE004A9204600F073F916E0A0
:2044CC0004A9204600F0F9F911E00DF1120204A9204600F095FA0AE00DF1120204A9204637
:2044EC0000F0D6FA03E004A9204600F03FFB064696B1162E12D0607814280DD020792870F5
:20450C002946BDF8100068802E716088FCF79BFD10B14FF0010801E0162E0CD160882B46FD
:20452C005FFA88F21621FFF789FC20B15FFA88F12846FFF71FFD2046FFF7B7FB9DF8120012
:20454C0007B0BDE8F08338880DF11601FEF7BDBF2DE9FA4786B0044604F1080500F04BFA2C
:20456C0005906A1D0DF1120000902B7969882888FEF77DFF002780464FF0FF0AB8F1000FD0
:20458C005BD009E0BDF810300B54BDF81000716892B2000A5054571C0598BFB2401F87426E
:2045AC004BDA2079BDF8122003904FF000090598CDF80490C01F80B20290414600F06BF9FB
:2045CC00002802BF728B2889904214D1316AE86807F0BAFE78B1706858B900F062F9072162
:2045EC00FFF78CFC706020B9069928880880112032E0B8F80A90BDF81220698804AB404617
:20460C00FEF787FFB9F1000F8046B7D0706807F80090781C726880B24FEA29218154411C51
:20462C004A1C7068B8F1000F89B2ABD101F800A092B2706802F800A0571CBFB247B1B808D6
:20464C00308031466088FCF72BFD28B1162003E00699288808800A2008B0BDE8F0872DE947
:20466C00F047044686B0608888469146FDF79CF8851EADB204F10806DFF8DC7601E0401CF7
:20468C003080A81E3989884238DBB8F1000F35D104A80090337971883088721DFEF7E7FE39
:2046AC005FEA000A2AD0BAF80A003080BDF810209AF808106088FEF75EFE5FEA00081DD12E
:2046CC0020793B6ABDF8102003905146A81E80B200F0ECF800F0E3F85FEA00080ED1BAF808
:2046EC000A307A8B396A608800F01FF85FEA000804D130884FF6FF718842C0D1388950B12D
:20470C00798890FBF1F0388039466088FCF7D8FC50B1162008E0B8F1000F08BF4FF00A084B
:20472C003088A9F80000404662E12DE9F8468246894615461E46FDF737F8DFF81C460746F8
:20474C00208990B900F0AEF809215046FFF7D6FB606008B9112023E0A81C60803A1F2089E3
:20476C0001466B189A4206D203E06088A91C8842F4D0012014E0401C208160680E542089AC
:20478C00411C2181310A62688154606823892A464946181807F088FA20892818208100206E
:2047AC00BDE8F2862DE9F04F85B00D46044604F108066088DFF8A075FCF7F6FF4FF0000BA0
:2047CC00A0F10108A0F1010A16E039887A8B084612189245BCBFA8EB010179837B687A8B98
:2047EC00396AC01807F060FA3888798B081838800BF101001FFA80FBB0888345BCBF388879
:20480C00504536DA306810F81B2000EB4B0004A9407802EB002080B2FEF757FE01000BD10B
:20482C004FF0010900F02DF8786808B107F0DFF9484605B0BDE8F08F2079BDF8102003902E
:20484C001FFA88F000F032F83B6A00F028F85FEA0009E7D178680028B7D100F022F80F2118
:20486C00FFF74CFB00287860AFD100F00AF81120DFE760883946FCF755FC0028D9D01620D4
:20488C00D7E7306810F81B1000EB4B00407801EB00202880704706F11A000090336A608804
:2048AC0068E2608800234FF6FF72704702900020019007F11A00009070472DE9F04786B00B
:2048CC008846044604F1080900F095F8059009F1050204A8009099F80430B9F80210B9F826
:2048EC000000FEF7C4FD0027BA4605460FE07268FF21B95480B272688154471C7068728B75
:20490C00316ABFB2381807F0CFF9708BC719BFB2DDB1BDF81020297A6088FEF72CFD5FEABF
:20492C00000A0FD12079BDF81020039029460598801F80B2029000200190FFF7ACFF5FEA66
:20494C00000A10D06889A8F80000002F46D0708897FBF0F0308031466088FCF7F2FB00280A
:20496C0046D0162044E07FB9FFF79BFF1121FFF7C5FA706020B96889A8F80000112037E08A
:20498C00708B001D708009E0708B7188021D9142DDD10599891FC0198142D8DB7168688927
:2049AC00785469897268781C80B2090A8154471CBDF81020B9F802100DF112032846FEF724
:2049CC00A8FD0546781C002DBFB290D07268BDF81210B954BDF81210090A8BE7BAF1000F75
:2049EC0008BF4FF00A0AB9F80000A8F80000504606B0BDE8F0876088DFF85C63FCF7D4BED5
:204A0C002DE9F041044604F1080784B00D463888904602A9FEF759FD06002FD0307A8006AD
:204A2C000BD5BDF8080000F09FF903000BD06088122231469847060021D1787A002814BF10
:204A4C005220207901E00E2619E00190002000907B887A683988608800F088FA060007D112
:204A6C00787A70B96088FCF77DFB50B116200CE0162E04D1002688F8006002E001263888B1
:204A8C002880787A00B10026304604B0BDE8F0812DE9F843894690460121044604F10806F4
:204AAC00608801F03EF9002718B9142060700E205AE030886946FEF708FD05004FD0287A4F
:204ACC0080060BD5BDF8000000F04EF9030015D06088122229469847070041D165882846B2
:204AEC0000F005F9010006D14FF6FF7000F0FFF8010030D00D800022974D02E00E272FE08F
:204B0C00521C687ED2B2824225D248680C2303FB02000388002BF3D10C22314607F0C4F845
:204B2C00002088F800000C223146284607F0BCF8B288608800231721FFF7E0F9A86060B1A6
:204B4C00B288B16807F0B0F860882946FCF710FB48B1162008E0092702E0112700E0012799
:204B6C003088A9F800003846BDE8F2832DE9F04383B089460027044604F10805608800F0A2
:204B8C00B6F85FEA00084AD02878012843D14146284600F050F8A0B1D8F8045018200190A8
:204BAC0068880090AB88AA682988608800F0DEF90746162F02D10020A8602CE05FB3288869
:204BCC0027E000250EE0019070880090B388B268608800F0CBF90746162F17D10020B060FB
:204BEC006D1CEDB25C48407E854214DAD8F804100C2202FB05121646318861B16B1C8342D1
:204C0C001DBF9089002816201820DCE7002FE7D03088A9F80000404600F07CF82FB9608841
:204C2C00FCF7B3FA20B1162003E0162F08BF00273846BDE8FE832DE9F84F0C460021002512
:204C4C0000264FF00C0B44480DE0994202BFBCF8027093B2BB4223D1BCF804305D19ADB29E
:204C6C009A1892B2761C437E9E420EDA63680BFB063CBCF8003043B10029E6D1BCF8045044
:204C8C00BCF802201946AA18EBE7022E2CDB28004FF0000904D006F091FF5FEA000801D11B
:204CAC00002022E0CA4619E00BFB0A07B96859B1BA8809EB080006F0F7FFB88848441FFA6C
:204CCC0080F9B86806F093FFBAF1000F04D00C220021384606F0E6FF0AF1010AB2456068AC
:204CEC00E2DBC0F8088085800120BDE8F28F1A4AD269002100E0491C184B1B78C9B299420E
:204D0C0006D232F831308342F5D102EBC10070470020704770B5044600250BE0B06808B10D
:204D2C0006F065FF0C220021304606F0BBFF002030806D1C0848407EEDB2854206D260682B
:204D4C000C2101FB050630880028E7D14FF6FF70208070BDF54600207C440020D444002087
:204D6C0025500100A044002080B5FFF7E1FA00B1806802BD2DE9FE4F0D468046287AC0066B
:204D8C0093461E464FF0000A0CD55846FFF7ECFF030000F0E4800A222946404698475FEA81
:204DAC00000A49D128780C9F0D9CDDF83890022816D100F018F94FF42051401A012810D900
:204DCC00801E3AD0401E14D0FD3876D0401E00F07D80401E6AD0401E6FD0401E00F0918083
:204DEC00A7E0002C2AD1E868017839800278416883E0002C22D1012038800021E868007810
:204E0C0030706889401C80B2FEF75FFB398860B10278921C51183980418971704189090A74
:204E2C00B17002784168F01C68E0081D388004220021701C06F036FF93E0002C62D1E868D1
:204E4C000488042038803470200A70700DF102012046FEF73AFB05001ED0EC68BDF8022081
:204E6C004FF6FF786B464146FEF753FB40B92B786A688C480221FCF727FC08B9ADF800808E
:204E8C00207802280AD161680222301D06F00CFF3888801C388001E0ADF80040BDF800009F
:204EAC00B070BDF80000000AF0705AE054BBE8680168404608F0CBF902E01CBBE8680088D2
:204ECC00022139803070000A70704AE0E86807F017FA82B2A242B8BF4FF0070A41DB94420D
:204EEC0008BF002206D009EB04019142B2BF4A46121B92B23A80E9686118304606F0D4FEE7
:204F0C002FE014B14FF00B0A2BE0E8680721398001783170417871704188B1704188090AA7
:204F2C00F17001793171C1887171C088000AB07117E05846FFF7FCF900281CBFD0F800C03F
:204F4C00BCF1000F0BD00F980290CDF8049000943B46324629464046E047824601E04FF08B
:204F6C000E0A5046BDE8FE8FF84600202DE9FE438046894617461E4602A94846FEF7A5FA6D
:204F8C0005002CD0BDF80800FFF7D2F900281CBFD0F804C0BCF1000F1FD00A980B9C009073
:204FAC00019433463A4629464046E047060017D1FE2C15D02878022812D100F014F842F65D
:204FCC00021188420CD13878797800EB012082B24946404600F04AF802E00E2600E00126C6
:204FEC003046BDE8FE8368680178407801EB002080B27047704700207047E0B58DF8082043
:20500C000223120A8DF80920FE2201920022009202AAFFF7ABFF0EBD7CB50129044605D09D
:20502C00022922D1012100F07CFEF0B92046FFF75EFE08B1FFF76EFE01A800904FF6FF754C
:20504C000223194A29460120FEF711FA0BE0F0680168204608F003F9BDF8042000232946BB
:20506C003046FEF756FA0600F1D173BDF8B50F4F04463878FF280D46164611D00A2006F095
:20508C00E1FD68B1B12101704480002141700171C580068101463878BDE8F44006F0AEBEC4
:2050AC00F1BD00008C400100A0400100F546002010B50A46052A18BF042A03D0062A18BF0A
:2050CC00072A08D1514B0C2404FB023222F8301D9070002010BD022010BD38B50D460446EE
:2050EC002888052818BF042803D0062818BF072801D1686808B9022032BD0121204600F0D1
:20510C0010FE08B9142032BD4FF6FE70844207D0204600F040FE2989884201D21B2032BD34
:20512C003B4800780028294620461CBFBDE8344000F095BABDE8344000F047BA80B5354B79
:20514C00009313460A4601212CE0E0B5019200230522009202930A462F4B0A2100F0CAF998
:20516C000EBD70B50D4684B004461646EB88AA886988288802F026FD58B100200290019659
:20518C00042000902A46254B1221204600F0B2F900E0182004B070BD80B5214B00931346B5
:2051AC000A46132100F0DAF902BD38B504461D480129017011D11C480088051DADB2012036
:2051CC0008F086F894FBF5F082B2284601B0BDE830400023002108F07FB8BDE832400020C7
:2051EC0008F076B803B50F4881B00078012803D102AA01A908F074F807BD0B4A001F108046
:20520C00034801707047084800887047A44400200A4700206757010057580100E55701005B
:20522C004B5801005D440020F64600207047000010B59D4C207000F095FC302200219B48D5
:20524C0006F030FD9A4960780978081860700006000D07F04DFE606088B161780A010021A0
:20526C0006F020FD0020FF226178C0B288423FBF616801EB00114A72401CF5D300E0607065
:20528C00207806F086F8BDE810400FF2292000F08FBC30B50C46200489B0834D0CD5287897
:2052AC0006F028FD050004D000F02AF8284606F0DEFC84F4004021E0E0071ED500F098F98A
:2052CC0030B1A878B0B12878012106F0DAFD11E0A97800291CBFE878FF280BD08DF80810BC
:2052EC00652302A901910022002100914FF6FF7100F033FB84F0010000E0002009B030BD1B
:20530C003EB504462078902848D16078132814D10020654A05E0A36833F810305918917047
:20532C00401CA3789178C0B29842F4D3002935D01078012106F0A5FD37BD65882146684668
:20534C0000F0E0F90199F9B1BDF80000052804D16946284600F026F818E004281CBF062825
:20536C00072813D151490C2202FB001030F8301D61B180786A46294600F0CDFA30B9BDF846
:20538C00000004280AD005E0012803D1A06808B106F02DFC01212846FFF724FF37BD424911
:2053AC00C8707047F0B50E4689B0044630890025042844DB716802A800F092F8BDF80A2071
:2053CC00182A63DA3189101D814235D19DF80800C00736D57068071D9DF8090000F014FB8A
:2053EC0006002CD035719DF8080001280BD0132821D13078042822D1BDF80A20394603A85B
:20540C0000F01EFA05E0BDF80A20394603A800F0C3F90546304600F016FB03A801900020C0
:20542C0000902A469DF80830307A214600F095FA304600F0E2FA15B1204600F032FB09B0BF
:20544C00F0BD9DF80800122817D17068011D03A800F0D8F90500EED1144881890029EAD065
:20546C0003A9019100229DF809109DF80830807B0091214600F071FADDE79DF80910ADF8E0
:20548C0000506A462046FFF759FED4E70120ADF800001720ADF802006A469DF8091020462A
:2054AC00FFF74CFECBE7000008470020A4440020D444002010B504464FF6FE7084420ED0D9
:2054CC00012906D002290AD10121204600F029FC28B92046BDE81040002100F0E3BA10BD66
:2054EC000A7802704A7842708A78C97802EB0121418070472DE9FC410D4616461F460A9A63
:20550C000999044601AB00F04FFA5FEA000822D10199089808703346DFF80C060178491C78
:20552C00C9B2002906BF012101220A460170294601980271009701980279204600F00EF86E
:20554C005FEA000804D101981E2100F072FA02E0019800F052FA4046BDE8F6812DE9F04145
:20556C00044684B00E4617469846172000F0EAFA050025D00A9A100003D04146281D9047E3
:20558C0000E00020010A2E70E9706F70A8700521001DADF80800ADF8001001956946DFF845
:2055AC008C0500780028204602D000F058F801E000F00BF8040004D0284606F018FB00E033
:2055CC001324204604B0BDE8F08110B50B88DFF860250C2404FB0322303A536833B94B688C
:2055EC005360098950811181002010BD162010BD80B5052000F00FF858B9062000F00BF88C
:20560C0038B9042000F007F818B9072000F003F800B1012002BD10B5DFF814150C2202FB16
:20562C000011A1F1300484B06168A9B1DFF8FC2412787AB1ADF80000019169462089ADF850
:20564C000800608900F00BF810B1606806F0CFFA00206060012000E0002004B010BD70B56B
:20566C000D460446288920B1DFF8C8140988814201D21B2070BD6868042106F08BFA064601
:20568C00288930702889000A70702888B0702888000AF0702889051D4FF6FE70844213D1F8
:2056AC000C2006F0CFFA01000CD0902008704C8002200871CD808E60DFF87C04007806F087
:2056CC009DFB17E0132070BD3346AAB20021204607F00AFE010007D002280DD007280FD087
:2056EC0012280BD01F280CD1DFF84004017809B1491E0170002070BD142070BD022070BD42
:20570C00042070BD38B50446002060600879022821D1CA88042A1EDB886801784378C5789E
:20572C0001EB0321837889B203EB05230D1D95429BB210D1052B18BF042B03D0062B18BFC1
:20574C00072B08D1218123806FF0030106F022FA6060002032BD012032BD0B88037002226F
:20576C000B881B0A43700B88012B06D14A88827004224988090AC1700CE0022B0AD14A8857
:20578C0082704A88120AC2708A88027106228988090A417110467047022A1BDB0A784B78F4
:2057AC0002EB032202800288012A05D18A78C97802EB012141800BE0022A09D18A78CB7875
:2057CC0002EB032242800A79497902EB0121818000207047012070470A8802700A88120A33
:2057EC0042704A8882704A88120AC2708A8802718A88120A4271CA888271C988090AC171C6
:20580C0008207047082A18D10A784B7802EB0322028011F8022F4B7802EB0322428011F8CF
:20582C00022F4B7802EB0322828011F8022F497802EB0121C180002070470120704705E075
:20584C00022A00D10EE00120704700BF0A8802700988090A417002207047022A00D101E0AA
:20586C00012070470A78497802EB012101800020704780B54B8800F8013B04224B881B0A40
:20588C0000F8013B0B8800F8013B0B881B0A00F8013B0B8873B94B88022B04D1496806F0DA
:2058AC0087FD082206E0032B04D10822091D06F0FBF90C22104602BD10B50446042A08463D
:2058CC0027DB0178437801EB0321618010F8021F437801EB03212180801C218899B9618880
:2058EC00022906D1082A14D1042106F04AFD60600DE0032908BF0C2A0BD101460822201DC1
:20590C0006F0D2F903E0012908BF042A01D1002010BD012010BDF8B504460D461646102035
:20592C0006F090F9070016D0A02038707D80002078702EB10C223146381D06F0B5F904E021
:20594C000C220021381D06F0ADF93946204606F055FA0020F2BD0120F2BD2DE9F041804625
:20596C000D4616461F46202006F06CF9040019D0A2202070667065800698207167710799CB
:20598C0029B1182204F1080006F08EF904E0182204F1080006F086F921464046BDE8F0411A
:2059AC0006F02CBABDE8F08170B51E0004460D4621D0012100F0B5F9D8B16048007800218E
:2059CC0000E0491CC9B2814211DA5D4B1B6803EB01125388002BF4D10020107001F1400084
:2059EC00508022B1D48015723260002070BD152070BD142070BD012070BD10B504461022EC
:205A0C00002106F04FF923E0002200E0521C4B4909788A420BDA4A49096801EB02114B880C
:205A2C00002BF3D00B798342F0D108467047002070474FF47A724A4300F1090301460FF285
:205A4C00190006F0A6BD10B50446607A06F035FDFF20607210BD000010B504001CBF60886D
:205A6C00002807D01721204600F005F82046BDE81040C2E710BD1CB50446207804280FD100
:205A8C000020019000900A46E188207A1323FFF764FFE18802B0BDE81040122205202DE061
:205AAC0013BD072170B50446002531BB17E02448006800EB0516307800281CBF707AFF28D5
:205ACC000CD0F088A04209D13046FFF7BCFF14213046FFF7D0FF3046FFF78FFF6D1C174831
:205AEC000078EDB28542E2D30425FF222146284600F004F86D1C082DF7DB70BD10B50C4B23
:205B0C000C2404FB0030A0F13004608988420AD1606840B1FF2A1CBF0178914203D106F0F4
:205B2C0066F80020606010BD724400200A470020A4440020F64600200847002009470020C4
:205B4C000C47002080B5001D80B207F0D1FB28B1BDE804406FF0030106F01CB802BD70471A
:205B6C000020704738B5B54C00220021204603F0A6FF20783025684307F0BAF96060B0B1B0
:205B8C00002109E005FB01024FF6FF735380491C00231371D362C9B222789142F2DB00204C
:205BAC00002104EB8002401C0C289160F9DB31BD0021A24A02EB8102936813B990600020B0
:205BCC007047491CC9B20C29F3DB132070472DE9F04106460C4617469846204600F074F853
:205BEC0008B1112024E04FF6FF7000F06DF805001DD085F8058006220699A81D06F054F8E0
:205C0C000622002105F10C0006F04CF86C802F712E700020E86200210898A8740998A882B7
:205C2C000A98E882204600F0F8F8002000E01520BDE8F08110B500F047F8040012D06088F9
:205C4C00012100F0EAF8E06A08B107F062F930220021204606F026F84FF6FF70608000204E
:205C6C00207110BD022010BD10B50C4600F02CF840B10179214301710221408800F0CDF8BF
:205C8C00002010BD152010BD38B50C4600F01CF8050017D028792070062268796070A91D0A
:205CAC00A01C06F001F8062205F10C0104F1080005F0FAFFA87CA073A88A2082E88A6082B8
:205CCC00002032BD012032BD10B500225B4B00E0521C1978D2B28A4208D25968302404FBEF
:205CEC0002114C888442F3D1084610BD002010BDF0B5524B5C6800224FF6FF7700E0521CEE
:205D0C0019788A420BDA302101FB02F529194E88BE42F4D02D5D8542F1D10846F0BD0020E7
:205D2C00F0BD10B50C464FF6FE71884206D0FFF7CBFF00281CBF0079204201D0012010BDE2
:205D4C00002010BD80B5FFF7BFFF00B1807C02BD10B500200021394A302406E0536804FB78
:205D6C0001331B7903B1401C491C1378C9B29942F4D3C0B210BD31480078704710B50C4634
:205D8C00FFF7A2FF00281CBFC18AA1421ABFC4820020012010BD80B5FFF796FF00B1C08A47
:205DAC0002BD70B505460C461646FFF78DFF28B94FF6FE70854218D0142070BD0179C06A30
:205DCC0028B9CA0609D5C90609D40F2070BD01F01202102AF7D1002EF5D0052070BD20B103
:205DEC00807EA04201D20C2070BD002070BD70B5040011D00025114E0BE07068302101FBA0
:205E0C0005004FF6FF724188914218BFA0476D1CEDB230788542F0DB70BD70B504460D4610
:205E2C000026064800EB86008268100002D0294620469047761C0C2EF3DB70BDD4440020FA
:205E4C0038B504000D4618BF002D01D1022032BD0321684600F036F900F02FF82A466946E4
:205E6C00204600F078F8040004D103226946E81C05F01AFF204632BD30B583B004000D46CD
:205E8C0018BF002D01D102203EBD0322E91C684605F00AFF00F011F801AA6946204600F084
:205EAC005AF848B90322294601A806F04DFA012801D100203EBD01203EBD9DF8021001F03F
:205ECC003F0141F040018DF80210704730B58DB00C46002818BF002C154600D00DB9022004
:205EEC0011E00146102200F033F81022214604A806F008FA00F05DF80446102208A92846F4
:205F0C0006F000FA20460DB030BD80B52020FBF772FC38B1024606480078BDE8084001219A
:205F2C0005F069BC01BD02480078012105F07BBC7344002070B58CB000F020F800F006F83F
:205F4C00280A8DF81E008DF81F50ABE010222146684606F0D7B970B58CB000F00FF8FFF7C6
:205F6C00F5FF032229460DF11D0006F0CBF900F020F8044603220DF12D0198E004460D4600
:205F8C00164630220021684605F08CBE70B58CB0FFF7F4FFFFF7DAFF00F08FF800F009F8B8
:205FAC009DF82F109DF82E2001EB022131800CB070BD6846CBE0F0B595B005460C46164639
:205FCC001F463022002108A805F06CFE1022294608A806F097F910220021684605F062FEA1
:205FEC0007223146FFF7B4FF072239460DF1070006F088F91C9901B101218DF80E101A9949
:20600C0001B101218DF80F101022002104A805F049FE1B99062205A806F074F91D990622F7
:20602C000DF11A0006F06EF9102221460CA806F069F969460CA800F01AF808A800F087F8B6
:20604C000446102210A90CA805F02EFE04A90CA800F00DF808A800F07AF805461E9810228F
:20606C0010A906F04FF945EA040015B0F0BD10B51022037811F8014B6340521E00F8013B6A
:20608C00F7D110BD70B50C468CB0154601461E461022FFF75DFF0822214604A806F032F9C4
:2060AC0000F00BF8FFF785FF0446102208A9304606F028F920460CB070BD0822294606A817
:2060CC0006F020B970B504460D46002609E005F049FD010A3155761CF6B2AE423CBF30559E
:2060EC00761CF6B2AE42F2D370BD006800F00301C0F3800241EA8201C0F3C00241EAC201D6
:20610C00C0F3001241EA0211400941EA4010C0B270470268920841EA820222F004038A0825
:20612C0002F0010243EA820222F00803CA0802F0010243EAC20222F0F0030A0902F00102CB
:20614C0043EA0212490942EA41110160704700F1200200F1100107F0CFB82DE9F04788B0F2
:20616C000700144614BF002C022089463FD009F10405A8B206F0BCFE060036D0FBF781FC2B
:20618C0080464A463946301D06F0BCF886F803804FEA1827B7704FEA184986F801904FEAA5
:2061AC00186A86F800A0FBF769FC0146102203A806F0A8F80820009001ABAAB2314603A840
:2061CC0000F085F805000DD184F80080677084F8029084F803A0082201A9201D06F092F8D2
:2061EC00FBF753FC00F070F800E01325284608B0BDE8F0872DE9F04F89B015001CBF129F71
:20620C00002F80460E469A4615D0FFF75DFD040008BF142055D03878797800EB0120B97812
:20622C0000EB0140F97800EB0169A06A484504D310F1010F01D0022043E026B120798007D4
:20624C0058BF01203DD50822002101A805F02AFD0AF1040B1FFA8BF006F04AFE060008BF2F
:20626C0013202ED052462946301D06F04BF804223946304606F046F8102204F1180105A818
:20628C0006F040F80820009001AB1FFA8BF2314605A800F01CF8050010D1082201A903A83D
:2062AC0006F030F80822391D03A806F04DF8012811BF012549464046FBF7F7FD00F004F848
:2062CC00284609B0BDE8F08F304606F022BE2DE9FA4F834685B0154600F0CFF8814600F0F5
:2062EC00CCF8B9F1000F804608BF132400F0B680B8F1000F08BF132400F0AD8000F0BDF8B3
:20630C0000F0BAF8BAF1000F064608BF132436D00EB9132430E01022002105F0C3FC524618
:20632C0031465846FFF717FF040025D19AF800000FF27817000604D44946504600F0AAF87F
:20634C0008E03146504600F0A5F84A463946304600F096F899F80000000604D44146484628
:20636C0000F098F808E03146484600F093F842463946304600F084F8504606F0CAFD0EB12E
:20638C00FFF7A2FF002C66D100F077F800F074F8BAF1000F064608BF132459D00EB9132411
:2063AC0053E005F10F00C11000EB117007033F1405F00F0102D10127002202E04A1E9241C0
:2063CC00D20F781E059B000503EB104012B222B13246494600F054F810E06B468A42B8BF99
:2063EC00155C02DB0CBF80250025D554521C102AF4DB32464146684600F042F810220021E4
:20640C00504605F04FFC00250BE00598290189B209186A46504600F033F800F029F80446AB
:20642C006D1C2DB2781E854201DA002CEDD064B96A463146504600F023F800F019F8044697
:20644C00109A0698514605F02FFC504606F061FD0EB1FFF739FF484606F05BFDB8F1000FC6
:20646C001CBF404606F055FD204607B0BDE8F08F5246694658466EE68246102006F038BD0A
:20648C0030B500231C5C5D5C6C409C545B1C102BF8DB30BD10B500220F231C5C42EA4402A6
:2064AC005A541A5CD2095B1EF7D510BD000000000000000000000000000000872DE9F843E7
:2064CC00DFF8545704462868894690461E46002708B1112035E06EB12120FBF78CF996F8C0
:2064EC009C10814206D32220FBF785F996F89C10884201D2022024E0782006F0F9FC28608E
:20650C0008B913201DE07822002105F0CBFB29684F7028680470286880F802902868011D6C
:20652C00A1F800804E60CF6180F8247014B100F0CFF907462968012048700FB100F0FEFA70
:20654C003846BDE8F28338B5DFF8CC562B6800244BB193F82420022A18BF032A05D0042AFC
:20656C0018BF062A01D0122032BD9A888A4201D0022032BD0146102203F10C0005F094FB49
:20658C00286810213530FFF79DFD286800F1250200F135010C3000F015F92868417802786D
:2065AC001AB103290DD1022107E0042902D10221417006E0032904D10521417000F09EF9D7
:2065CC000446204632BDDFF8501688607047DFF8481648607047DFF84026126802B9704777
:2065EC0080B59288824208BF012904D100F0A6FABDE8014026E301BD1720C4E270B586B041
:20660C00044600208DF80000A0680578691E0A2939D8DFE801F006060D1115191D21252993
:20662C002D0001A900F001FC122824D106202BE001A900F06BFC1EE001A900F083FC1AE018
:20664C0001A900F096FC16E001A900F0AAFC12E001A900F0C3FC0EE001A900F0E9FC0AE02A
:20666C0001A900F0F0FC06E001A900F003FD02E001A900F018FDD8B96088FFF725FB0526BD
:20668C0028B9082612E007208DF8000013E0827CDFF88415082A0CBF8968496831B10B68EC
:2066AC00190003D001AA2946984706468DF800609DF8000020B16088694600F007F803E0E9
:2066CC000B2D18BFFFF721FC06B070BD38B50C46DFF848352246022100F0F3FC05462078C9
:2066EC0000F051FA284632BD70B5DFF82C450546206800280E463ED08188A9423BD1417873
:20670C00062930D1017811B38168D1F89810026ACB0704D5137BDB0748BF072113D4C1F355
:20672C004003002B1FBFD368C3F34003002B092109D1C1F3800100291EBFD168C1F38001F5
:20674C00002902D00B21417007E0A06800E0606818B14068010018BF804720684078122834
:20676C0016D1002004E0112905D106B13226304600F009FA0CE03EB92846FFF7A5FA18B1EB
:20678C00017941F01001017129463046FBF772FD012070BD10B5DFF88044206888B1007892
:2067AC0000280CBF6068A06818B14068010018BF804720684078122803D1BDE81040002097
:2067CC00E1E110BD2DE9F34FDFF84C648DB03068904608B9122041E08088FFF775FA05000E
:2067EC0008BF14203AD009A800F0F6F93068017879B1D0F820A0FBF755F9040018BF0124F5
:20680C000020FBF752F96F7909AE814605F1060B0EE0066AFBF746F9070018BF01270020ED
:20682C00FBF743F96C790DF1240A834605F1060907A9504600F0A2FA05A9304600F09AFAC5
:20684C00CDF81080CDF80CB00297CDF8049000940E990D9805AB07AAFFF7ADFB0FB0BDE821
:20686C00F08F70B5DFF8B05386B00446686800281CBF006800280E461BD030788DF804003B
:20688C0070788DF8050002A8B178FFF742FCF0786B688DF80C0001AA7068049001211B68EB
:2068AC002046984728B18DF8000069466088FFF70DFF06B070BD38B5D74CA46834B1A5689F
:2068CC002C0003D0049C0094A84732BD022032BD1FB500F031F870B1684600F07DF92168DF
:2068EC0088880978002914BFCD4BCE4B6A46072100F0E7FB00E0012004B010BD1FB500F0DE
:20690C001BF800F125011022684605F0CDF92068C54B0AE01FB500F00FF800F13501102200
:20692C00684605F0C1F92068C04B80886A46112100F0C7FB04B010BDB74C20687047F8B54F
:20694C00B54F04463868006A0025002840F0C280102006F0CDFA39680028086200F0B880CC
:20696C008E681022214605F09FF938680178002940F08780026A12F80CCF06F198010CF099
:20698C00010C0B6803F00107674518BF00275B0847EA43030B60C3F34007D2F800C0CCF33B
:2069AC00400C674506BF5F0807F00107002723F0020343EA47030B60C3F38007D2F800C0C0
:2069CC00CCF3800C674506BF9F0807F00107002723F0040343EA87030B60C3F3C007D2F89F
:2069EC0000C0CCF3C00C674506BFDF0807F00107002723F0080343EAC7030B60C3F3002765
:206A0C00D2F800C0CCF3002C674506BF1F0A07F00107002723F4807343EA07230B60C3F3B3
:206A2C004027D2F800C0CCF3402C674506BF5F0A07F00107002723F4007343EA47230B60A2
:206A4C00C3F38027D2F800C0CCF3802C674506BF9F0A07F00107002723F4806343EA8723C7
:206A6C000B60C3F3C0271268C2F3C022974206BFDA0A02F00102002223F4006343EAC222CD
:206A8C000A60617800291EBF7178002905211AD16168C1F3800129B996F89510490758BF04
:206AAC00012110D50178002919BF31782278327821780529B8BF052A08DA0FF2B41302EB58
:206ACC008202D218895C2030017104E0182502E0132500E011252846F2BD0A46544B15E043
:206AEC0010B586B00446ADF800101046014608220DF1020005F0D8F84E4B6A460B21204629
:206B0C0000F0DFFA06B010BD0A464B4B112100F0D8BA1CB58DF8001004461046014606220E
:206B2C000DF1010005F0C0F8444B6A460821204600F0C7FA13BD0A46414BE7E710B5FFF7E9
:206B4C00FBFEE0B1006A08B106F0E3F92068806E08B106F0DEF92068C06E08B106F0D9F977
:206B6C002068006F08B106F0D4F92068406F08B106F0CFF9206806F0CCF900202060BDE860
:206B8C001040FFF7D0B900B5234985B0096881B14A6F03920A6F0292CA6E01928A6E009271
:206BAC000B7F8A880978FBF7EFFB05B05DF804EBC4E705B000BD18490968102000291CBFB4
:206BCC000A6A002A07D0896829B191F89C00117A814238BF0846704770B504460E480068CD
:206BEC0000281CBF8568002D0FD02878207005F1950668786070201D3178FFF78AFAF07953
:206C0C002072D5F89800E06070BD2046BDE870401022002105F046B80C450020676F0100BB
:206C2C00816D0100896D0100076F01002F6F01009D6F0100C56F01000D7001001F700100FC
:206C4C006F70010010B52620FAF7D5FDC4B26CB1022006F04DF948B110210170002141701C
:206C6C0001462046BDE8104005F0C8B810BD00000101020102010102010203030401030107
:206C8C0001010101030302010300000010B5354C207004F081FB20780621FEF709FABDE836
:206CAC0010403148FEF784BF70B50C4620042F4E3DD52C48007805F01DF805000ED0287824
:206CCC0092280ED0A0282AD12846FFF797FCA86808B104F08CFF284604F0C9FF84F400402C
:206CEC0070BD68783E281AD1A878052806D0082815D1A979A888FFF7F7FC0EE0A888FFF7A2
:206D0C0021F80428E7D130680028E4D0C3681800E1D0EA89A888A91D98470028DBD114488A
:206D2C000078FF28D7D0294605F068F8D6E7E00704D5FFF761FC84F0010070BDA00704D54B
:206D4C00FFF728FD84F0020070BD600708D5306818B18068010018BF804784F0040070BD98
:206D6C00002070BD73440020E365010010450020494600200A460146012002E00A46014645
:206D8C00022070B50C46150018BF002C01D1022070BD1070D61C20785070751C60789070E2
:206DAC00201DFFF7A2F93070207A2870E068000A00F001006870E168C1F3402101B10221D9
:206DCC0008436870E168C1F3802101B1042108436870E168C1F3C02101B108210843687010
:206DEC00E168090B40EA01106870207B00F00100A870E168C1F3400101B102210843A870FD
:206E0C00E168C1F3800101B104210843A870E168C1F3C00101B108210843A870E168090957
:206E2C0040EA0110A870002070BD38B505000C4618BF002C01D1022032BD68782070A878EC
:206E4C006070201DE978FFF764F92879E168207221F48071687900F0010241EA0221420877
:206E6C0021F4007102F0010241EA4221820821F4806102F0010241EA8221C20821F4784122
:206E8C0002F0010241EAC221000941EA0031E1604908A87900F0010242EA4101420821F00F
:206EAC00020102F0010241EA4201820821F0040102F0010241EA8201C20821F0F80102F057
:206ECC00010241EAC201000941EA0010E0602120FAF791FC217A814205D32220FAF78BFC82
:206EEC00217A884201D2122032BD20780528BBBF607802281820002032BD80B50B0018BF8E
:206F0C00002801D1022002BD032112E080B50B46002818BF002B01D1022002BD411C102282
:206F2C000BE080B50B0018BF002801D1022002BD042103F8011B10220146184604F0B4FEAF
:206F4C00002002BD80B50B46002818BF002B01D1022002BD411C1022EFE7002918BF002856
:206F6C0001D10220704705220A700078487000207047002818BF002901D102207047407827
:206F8C0008700F2800DA08B9182070470020704780B50B0018BF002801D1022002BD0621BC
:206FAC00C7E780B50B46002818BF002B01D1022002BD411C1022C0E780B50B0018BF00283F
:206FCC0001D1022002BD072119700822018859700188090A9970811CD81CAFE780B50B4673
:206FEC00002818BF002B01D1022002BD10F8011F427801EB022119800822811C981C9DE71F
:20700C0080B50B0018BF002801D1022002BD08218FE780B50B0018BF002801D1022002BDE1
:20702C0009211970062201785970411C981C85E780B50B46002818BF002B01D1022002BD47
:20704C00411C102279E780B50B46002818BF002B01D1022002BD417819700622811C581C57
:20706C006CE780B50B0018BF002801D1022002BD0A215EE780B50B46002818BF002B01D1CD
:20708C00022002BD411C102257E710B50C0018BF002801D1022010BD0B212170FFF725F8D5
:2070AC006070002010BD80B50A46002818BF002A01D1022002BD41781046FFF72AF800205F
:2070CC0002BD70B5044684B008460621ADF80010ADF8080015461E46FEF734FD01000191F3
:2070EC000DD02846B047050004D169462046FDF7F4FF054625B1019804F079FD00E0132530
:20710C00FEF703FF284604B070BD00002DE9F84F804608F10604DFF8A00400688B462178AA
:20712C00382202FB01001BF8011B00F120090C2908F1E30708F1660608F2031547F6FF7A5D
:20714C00DFF8780400F21581DFE811F00D0052000D016F0013011301CD001A01DD00EC00CB
:20716C00D000DA00F1001BF8010BB0770222594608F1860006F0C4F80146022208F1880042
:20718C0006F0BEF80146022208F18A0006F0B8F80146022208F18C0006F0B2F80146B07F9D
:2071AC004000B0770222308C40003084708C40007084F08C0001F08408F1820006F0A0F85E
:2071CC00B08B6188401A80B2504525DAB08C718C401C49004843F18C884228BF3B201CD27F
:2071EC000120B07600202083012089F81400C7E00522594608F1610006F082F80146022221
:20720C0008F1900006F07CF808F18E0062884188891A89B2514501DB2820A6E00121017084
:20722C000020208389F81410AAE0B87DC00708D41A20B873787B012808BF0D213AD00D21CA
:20724C0099E000203070B071082201207874594608F1AC0006F054F80146022208F1B400F3
:20726C0006F04EF808F1A40401460822204606F047F805460821204606F046F808F1980476
:20728C0004222946204606F03BF80421204606F03BF808F19C0006F03BF808F1940006F0C9
:2072AC003BF8C748018841F080010180787B012805D104214046BDE8F44F01F0EDB9307CFC
:2072CC00012804BF707C0F280BD1404601F0C6F90421404606F024F80F2089F80000FD21F6
:2072EC0049E0042147E00120F87349E000203070B07138700B2101207873002078703AE075
:20730C00012038743CE000F03DF8404601F0D6F8002835D1BDE8F44FAA4800784FF480418A
:20732C0004F0AFBD00F02EF80220787528E0B07908B93D2019E0B87F01281AD01BF8010B0B
:20734C0068700222594608F5837005F0D9FF0146022208F5847005F0D3FF0120B8772878B6
:20736C0070B90C2107E09BF8000068720120287206E0A97207214046BDE8F44F05F0D0BF81
:20738C00BDE8F18F00210A1811F80B3052781A4001EB0803491C082983F8F920F3DB70476B
:2073AC002DE9F04781463020002500FB09FA864F864C4FF00C08206808FB05F650443018DE
:2073CC000021017102212068504430184171796920684A78504433182132DA806A1C531034
:2073EC0002EB93739B10A2EB830208FB0202325048781F3080B205F097FF216851447218D4
:20740C00906008B1801E90606D1C042DD3DB7048006800EB09100022016042608160C26075
:20742C00BDE8F08738B50C46A06888B966484069407800F11F05A8B205F076FFA06030B1D3
:20744C00801EA060A81CE0800020207131BDE08031BD70B50446206F05682E46F0880028F2
:20746C001CBFB068002803D131462046FFF7DAFF3668AE42F2D170BD70B504460021206FC8
:20748C00056801602E46307930B9B06820B104F0AEFB0020B060F0803668AE42F3D1206F05
:2074AC0005602046BDE87040D3E780B500F023F805F03EFF05F040FFBDE804400FF2350120
:2074CC0005F03EBF7CB5434D434E2A68019104460A20ADF800008DF802403068526A694655
:2074EC0090472A683D48926A40EA04213068904773BD0000704738B5394C364A022020803D
:20750C00214612683448526A00689047812801D0032032BD00203349FF22002501EBC003EA
:20752C00401C04281A705A705D60F7DB002000222389012585402B4209D001F8320001EB9E
:20754C00C205521CD2B20123042A6B7002D0401C1028EDDB002032BD70B50446224884B0EF
:20756C0000680D4680470646A06810B9A56004E0084601680029FBD1056000202860052099
:20758C00144A1268ADF800000194029569461248526A00689047812806D0206800280EBF36
:2075AC0025606068056065603046104909688847002004B070BD00004C470020D04E002047
:2075CC00BE4C0020844C002054DD0100104F00200C4F0020484700204447002001000904F1
:2075EC00CC4F0020AC4F002080450020844500202DE9F84304462448007801280F46154603
:20760C00994608D121480188491E018089B211B9012005F099FEDFF8788098F80000FF2696
:20762C0078B10C2004F00EFB48B3902101704670022101714480C5808760014698F80000BD
:20764C0019E0082004F0FEFA010018D0012008704E70781F48600222027048684470200A6E
:20766C004A6840EA091090704868C57000204A68107108480078BDE8F44304F0BFBB384641
:20768C00BDE8F24304F0B3BA244F0020264F00203545002032450020DFF804059021017048
:2076AC0088214170012181700221C1700021017180214171002181712021C1710021DFF899
:2076CC00E4048160C1601F21017000214170418041601F20DFF8D014087070472DE9F0415F
:2076EC0000F073F81F4640D5DFF8B804007840073BD5DFF8B88498F8000098B10C2004F03B
:20770C00A1FA90B39121017084803E214170C5800321817006810021C1704781014698F876
:20772C00000021E0152004F08DFAF0B101210170042200F0BCF80A704C713E224A70CD71FF
:20774C000A228A704E720322CA70CF7200220A71220A8A712A0A0A72320A8A723A0A0A732A
:20776C000146DFF84C04007828E2BDE8F081F8B500F02BF828D5DFF82C040078000723D5BC
:20778C00172004F05FFA07001ED001203870082200F0C2F90C207968887004207968C87084
:2077AC007868047178684571280A7968887131467868C01D04F078FA3946BDE8F440DFF8FD
:2077CC00F003007804F01ABBF1BD0446DFF8D003C07980060D4616467047F8B5DFF8D463E7
:2077EC00074630780C46154620B3B8000C3080B204F028FA00284DD090210170877013213A
:20780C00417000F10C01416000EB47010C31816000210AE0436834F8112023F81120836871
:20782C0035F8112023F81120491CB942F2DB014630782BE0B800461C06F10B00C0B204F0E9
:20784C0001FA38B30121017000F031F804214268117013214268517041688E704168CF700C
:20786C0000210EE000F01DF8137100F01AF81B0A537100F010F8937100F00DF81B0AD3711F
:20788C00491CB942EEDB0146C9480078BDE8F44004F0B4BAF1BD426835F8113002EB810272
:2078AC007047426834F8113002EB81027047FF21417000F108014160704738B50446B8486D
:2078CC00C079800632D5B748807A00062ED5B74D287858B1062004F0B5F938B39021017052
:2078EC00448057214170014628781BE00D2004F0A9F901001AD001200870FF20487001F19D
:20790C000800486004204A68107057204A68507002204A6890704868C470200A4A68107157
